:020000040800F2
:10000000300400200101000819080008F504000868
:10001000A106000879030008EB1E0008000000009C
:10002000000000000000000000000000851C000827
:100030007D030008000000006D1B0008711D000812
:100040001B0100081B0100081B0100081B01000820
:100050001B0100081B0100081B0100081B01000810
:100060001B0100081B0100081B0100081B01000800
:100070001B0100081B0100081B0100081B010008F0
:100080001B0100081B0100081B0100081B010008E0
:100090001B0100081B0100081B0100081B010008D0
:1000A0001B0100081B0100081B0100081B010008C0
:1000B0001B0100081B0100081B0100081B010008B0
:1000C0001B0100081B0100081B0100081B010008A0
:1000D0001B0100081B0100081B0100081B01000890
:1000E0001B0100081B0100081B010008DFF80CD0F1
:1000F00000F030F9004800475D220008300400207D
:100100000648804706480047FEE7FEE7FEE7FEE7B1
:10011000FEE7FEE7FEE7FEE7FEE7FEE7751D0008E7
:10012000ED000008F0B480EA0102D40F4200B2EB07
:10013000410F02D20246084611464A0042D0C30D82
:10014000DDB2C1F3C752AD1A202D35DAC1F3160165
:1001500041F4000204B15242C5F1200602FA06F150
:100160002A411044B3EBD05F23D0C4B1012DA0EBE2
:10017000C35009DCF0BC4FF0004202EAC352DBB2CC
:1001800000F5000000F0B8B8400000F1807000EB0E
:10019000C350A0F1807040EAD170490009E04908DD
:1001A00041EAC071A0EBC35000F50000400800EB2D
:1001B000C350F0BC00F097B86142012202EB41014C
:1001C000001BF6E7F0BC704781F00041AAE780F021
:1001D0000040A7E780EA010210B502F000434000AA
:1001E00022D04A001FD0010E01EB1261C0F356006D
:1001F000C2F3560240F4000042F40002A0FB0220C9
:1002000000047F39140400D0401C50EA124001D48D
:100210004000491EC2B20C0604EBD010401C40083E
:10022000802A02D003E0002010BD20F00100002948
:1002300000DA0020184310BD30B480EA010202F059
:10024000004530F0004221F0004013D090B1C30DC2
:10025000D40DC2F31601C0F31600E41A41F40001F4
:1002600040F400027D34914201D3641C00E0490057
:10027000002C02DA30BC002070474FF4000000234D
:10028000914201D3891A034340084FEA4101F7D153
:1002900051B1914202D14FF0004105E002D24FF03E
:1002A000010101E06FF0010103EBC450284430BCB0
:1002B00000F019B896230022114600F01DB820F076
:1002C0000040C10DC0F3160040F400007F2901DAA0
:1002D00000207047962903DCC1F19601C8407047A1
:1002E0009639884070470029A8BF7047401C4900D4
:1002F00008BF20F00100704710B4B0FA80FC00FA8B
:100300000CF050EA010404BF10BC704749B1CCF1B5
:10031000200421FA04F411FA0CF118BF0121214341
:100320000843A3EB0C01CB1D4FEA00614FEA1020FC
:1003300042BF002010BC704700EBC350104400299E
:10034000A4BF10BC7047401C490008BF20F001004A
:1003500010BC7047064C074D06E0E06840F0010312
:1003600094E8070098471034AC42F6D3FFF7C2FE7A
:10037000D8240008F824000800BFFEE7704700B545
:10038000034603E04FF47A7000F005F8181EA3F15D
:100390000103F7D100BD00EBC001C9004FF0E0221E
:1003A0005161002191610521116100BF4FF0E021F1
:1003B000096901F480310029F8D004214FF0E022CE
:1003C000116170472DE9F04102460025002600200A
:1003D00000230024002791F803C00CF00F0591F8CA
:1003E00003C00CF0100CBCF1000F03D091F802C058
:1003F0004CEA050591F800C0BCF1000F31D014683B
:1004000000202BE04FF0010C0CFA00F3B1F800C013
:100410000CEA03069E4220D183004FF00F0C0CFA29
:1004200003F7BC4305FA03FC4CEA040491F803C04B
:10043000BCF1280F06D14FF0010C0CFA00FCC2F8F9
:1004400014C00AE091F803C0BCF1480F05D14FF089
:10045000010C0CFA00FCC2F810C0401C0828D1D3D3
:100460001460B1F800C0BCF1FF0F34DD5468002007
:100470002EE000F1080C4FF0010808FA0CF3B1F877
:1004800000C00CEA03069E4221D183004FF00F0CFE
:100490000CFA03F7BC4305FA03FC4CEA040491F898
:1004A00003C0BCF1280F05D100F1080C08FA0CF8C4
:1004B000C2F8148091F803C0BCF1480F07D100F1D5
:1004C000080C4FF0010808FA0CF8C2F81080401C24
:1004D0000828CED35460BDE8F0810246002093681E
:1004E0000B400BB1012000E00020704741617047D4
:1004F0000161704700BFFEE721B1028842F48062CB
:10050000028004E002884FF6FF331A4002807047F1
:1005100070B502460024002500230020958A138B25
:100520001B0445EA030626F07F4404EA01068E42D6
:1005300001D1012000E0002070BD21B1028842F00D
:100540000102028004E002884FF6FE731A40028026
:10055000704721B1028842F48072028004E0028870
:100560004FF6FF631A400280704721B1028842F4BF
:100570000072028004E002884FF6FF531A400280A6
:10058000704700002DE9F04385B004460D46002673
:10059000B1460427DFF8CC80A6884FF6C07006402D
:1005A000684601F005FBDDF808802F48B8FBF0F045
:1005B0001FFA80F946EA0906A68020884FF6FE71E8
:1005C0000840208000262949286888420CD82868DD
:1005D0004000B8FBF0F087B2042F00DA04273E4356
:1005E00009F10100208427E0E8884BF6FF7188427A
:1005F00006D1286800EB4000B8FBF0F087B209E0B4
:10060000286800EBC00101EB0010B8FBF0F087B2E6
:1006100047F48047C7F30B0008B947F0010747F4D8
:10062000004006434FF4967009FB00F04FF47A71D6
:1006300090FBF1F0401C2084A683208840F001004C
:10064000208026884FF6F5300640A888698908433F
:1006500006432680A88929890843208105B0BDE882
:10066000F083000000127A0040420F00A0860100D3
:100670000146088AC0B270470182704770B50446CF
:100680000D464FF47A7603E0701E061E00D170BD51
:1006900029462046FFF73CFF0128F5D100BFF6E7C9
:1006A00000BFFEE700B585B00121082001F070FA17
:1006B0000121880501F05CFA1C208DF813004FF42D
:1006C0004060ADF8100003208DF8120004A9124814
:1006D000FFF778FE4FF440610F48FFF709FF0F481E
:1006E00000900020ADF804004BF6FF70ADF8060056
:1006F0000020ADF808004FF48060ADF80A0000015A
:10070000ADF80C0069460648FFF73CFF012104489C
:10071000FFF713FF05B000BD000C0140801A060072
:100720000058004010B501210748FFF7E5FE0749D2
:100730000548FFF7A3FF0448FFF79AFF08B101201F
:1007400010BD0020FCE700000058004040000300FE
:1007500010B5044621460448FFF78EFF03490248BE
:10076000FFF78CFF10BD0000005800408400070018
:1007700010B501210348FFF7ECFE03490148FFF7DC
:100780007DFF10BD005800400100030010B501219D
:100790000148FFF7EAFE10BD0058004000B585B0E3
:1007A0000121042001F0F4F918208DF813004FF412
:1007B0000070ADF8100001208DF8120004A9144853
:1007C000FFF700FE48208DF813004FF48060ADF86D
:1007D000100004A90E48FFF7F5FD0121880301F080
:1007E000D7F94FF4165000900C20ADF80A00002005
:1007F000ADF80400ADF80600ADF8080069460548FC
:1008000001F002FB0121034801F0E4FA05B000BD4C
:100810000008014000380140704700002DE9F04118
:1008200004460F4615461E464FF00008C64800789D
:10083000C0EBC000C54908448079C4EBC401C34A79
:1008400011448979884231D0BF480078C0EBC0009C
:1008500011460844407818B16E21012000F09CF93F
:10086000B9480078C0EBC000B8490844807818B196
:100870004621022000F090F9B3480078C0EBC00098
:10088000B2490844007918B16E21042000F084F9BF
:10089000AD480078C0EBC000AC490844407918B1BD
:1008A0004621052000F078F94FF00108A8480078AB
:1008B000C0EBC000A54908448079C7EBC701A34A33
:1008C00011448979884231D0A1480078C0EBC0003A
:1008D00011460844407818B16E21082000F05CF9F8
:1008E0009B480078C0EBC00098490844807818B154
:1008F0004621092000F050F995480078C0EBC0006F
:1009000092490844007918B16E210B2000F044F997
:100910008F480078C0EBC0008C490844407918B17A
:1009200046210C2000F038F94FF001088948007882
:10093000C0EBC000854908448079C5EBC501834AF6
:1009400011448979884231D082480078C0EBC000D8
:1009500011460844407818B16E21012000F0C8F912
:100960007C480078C0EBC00078490844807818B112
:100970004621022000F0BCF976480078C0EBC000A8
:1009800072490844007918B16E21042000F0B0F9D2
:1009900070480078C0EBC0006C490844407918B139
:1009A0004621052000F0A4F94FF001086A480078BC
:1009B000C0EBC000654908448079C6EBC601634AB4
:1009C00011448979884231D063480078C0EBC00077
:1009D00011460844407818B16E21082000F088F9CB
:1009E0005D480078C0EBC00058490844807818B1D1
:1009F0004621092000F07CF957480078C0EBC00080
:100A000052490844007918B16E210B2000F070F9AA
:100A100051480078C0EBC0004C490844407918B1F7
:100A200046210C2000F064F94FF00108B8F1000FE6
:100A300002D03C20FFF7A3FC43480078C0EBC00085
:100A4000424908448079C4EBC401404A1144897981
:100A500088420BD0C4EBC4001044807908B15A20FE
:100A600000E000200146062000F096F838480078A3
:100A7000C0EBC000354908448079C7EBC701334A51
:100A80001144897988420BD0C7EBC70010448079A4
:100A900008B15A2000E0B42001460D2000F07CF897
:100AA0002C480078C0EBC000284908448079C5EB89
:100AB000C501264A1144897988420BD0C5EBC5008F
:100AC0001044807908B15A2000E000200146062039
:100AD00000F00EF920480078C0EBC0001B49084424
:100AE0008079C6EBC601194A1144897988420BD036
:100AF000C6EBC6001044807908B15A2000E0B4204B
:100B000001460D2000F0F4F8B8F1000F02D0B42037
:100B1000FFF735FC0C4804700D4807700D48057050
:100B20000D4806702146012000F070F93946022078
:100B300000F06CF92946012000F038FC3146022013
:100B400000F034FCBDE8F08114000020902400087F
:100B500015000020160000201700002010B5FFF738
:100B6000A1FD0021084600F08DF80A20FFF707FCE0
:100B70000121002000F086F80A20FFF700FC042184
:100B8000012000F07FF80A20FFF7F9FB014800F090
:100B900049F810BD000048422DE9F04706460C46D2
:100BA000B42C00DDB4242046FFF784FB81460949BC
:100BB000FFF742FB80460849FFF70CFB0746FFF7AB
:100BC0007EFB663085B22A460021304600F006F8EA
:100BD000BDE8F087000034430000CD432DE9F0412B
:100BE00005460E461746102D01DBBDE8F081A80032
:100BF000801DC4B2F1B2204600F044F8611CC8B2B6
:100C0000C6F3032100F03EF8F9B2A21CD0B200F006
:100C100039F8E11CC8B2C7F3032100F033F800BF74
:100C2000E3E700002DE9F04104461021002000F028
:100C300029F80A20FFF7A3FB4FF08B412046FFF76E
:100C4000C9FA804641460E48FFF7F6FA07464FF0CC
:100C50007C51FFF7B9FA06463046FFF730FBC5B2C4
:100C60002946FE2000F00EF80A20FFF788FB01213C
:100C7000002000F007F80A20FFF781FBBDE8F081B3
:100C800020BCBE4B70B505460C46FFF771FD8020B9
:100C9000FFF75EFDFFF746FD2846FFF759FDFFF71A
:100CA00041FD2046FFF754FDFFF73CFDFFF76EFDC9
:100CB00070BD000010B5FFF7F5FC0021084600F0FC
:100CC0008DF80A20FFF75BFB0121002000F086F879
:100CD0000A20FFF754FB0421012000F07FF80A20CE
:100CE000FFF74DFB014800F049F810BD00004842F5
:100CF0002DE9F04706460C46B42C00DDB42420460E
:100D0000FFF7D8FA81460949FFF796FA8046084965
:100D1000FFF760FA0746FFF7D2FA663085B22A4637
:100D20000021304600F006F8BDE8F08700003443AB
:100D30000000CD432DE9F04105460E461746102D23
:100D400001DBBDE8F081A800801DC4B2F1B22046ED
:100D500000F044F8611CC8B2C6F3032100F03EF86D
:100D6000F9B2A21CD0B200F039F8E11CC8B2C7F346
:100D7000032100F033F800BFE3E700002DE9F04164
:100D800004461021002000F029F80A20FFF7F7FAA6
:100D90004FF08B412046FFF71DFA804641460E4832
:100DA000FFF74AFA07464FF07C51FFF70DFA064667
:100DB0003046FFF784FAC5B22946FE2000F00EF84F
:100DC0000A20FFF7DCFA0121002000F007F80A20D2
:100DD000FFF7D5FABDE8F08120BCBE4B70B50546E3
:100DE0000C46FFF7C5FC8220FFF7B2FCFFF79AFC28
:100DF0002846FFF7ADFCFFF795FC2046FFF7A8FC5F
:100E0000FFF790FCFFF7C2FC70BD00002DE9F04732
:100E100007460C46012F05D100254FF00009FE487A
:100E2000067804E007254FF0B409FC480678C6EBC5
:100E3000C600FB49084490F806A0C4EBC40008446F
:100E400090F80680C2453BD0C6EBC6000844407807
:100E500020B1691CC8B26E21FFF79EFEC6EBC6002A
:100E6000EF490844807820B1A91CC8B24621FFF799
:100E700093FEC6EBC600EA490844007920B1291D5B
:100E8000C8B26E21FFF788FEC6EBC600E4490844ED
:100E9000407920B1691DC8B24621FFF77DFE3C2094
:100EA000FFF76DFAB8F1000F01D05A2200E04A4670
:100EB0001146AA1DD0B2FFF76FFEB420FFF75FFA0C
:100EC000012F7CD10A2C22D2DFE804F005223F5CFE
:100ED0007A97B4D1F0EE5A210020FFF75DFE5A2137
:100EE0000120FFF759FE5A210220FFF755FE5A2133
:100EF0000320FFF751FE5A210420FFF74DFE5A212F
:100F00000520FFF749FE00210620FFF745FE07E117
:100F1000B4210020FFF740FE5A210120FFF73CFEDC
:100F20005A210220FFF738FE00210320FFF734FE8C
:100F3000B4210420FFF730FE00210520FFF72CFE2E
:100F400000210620FFF728FEEAE05A210020FFF7E3
:100F500023FE5A210120FFF71FFE00210220FFF788
:100F60001BFE5A210320FFF717FE5A210420FFF72A
:100F700013FE00210520FFF70FFE5A210620FFF780
:100F80000BFECDE05A210020FFF706FE5A2101207A
:100F9000FFF702FE5A210220FFF7FEFD5A2103202F
:100FA000FFF7FAFDB4210420FFF7F6FD002105202C
:100FB000FFF7F2FD5A210620FFF7EEFDB0E0B0E0AA
:100FC000B4210020FFF7E8FD5A210120FFF7E4FDDE
:100FD0005A210220FFF7E0FD00210320FFF7DCFD8E
:100FE000B4210420FFF7D8FD5A210520FFF7D4FDD6
:100FF0005A210620FFF7D0FD92E05A210020FFF78A
:10100000CBFDB4210120FFF7C7FD5A210220FFF7D5
:10101000C3FD5A210320FFF7BFFDB4210420FFF7D1
:10102000BBFD5A210520FFF7B7FD5A210620FFF727
:10103000B3FD75E05A210020FFF7AEFDB421012079
:10104000FFF7AAFD5A210220FFF7A6FD5A2103202F
:10105000FFF7A2FD5A210420FFF79EFD5A2105202B
:10106000FFF79AFD5A210620FFF796FD58E05A2116
:101070000020FFF791FD5A210120FFF78DFD5A2135
:101080000220FFF789FD00210320FFF785FDB42131
:101090000420FFF781FD00210520FFF77DFD0021E1
:1010A0000620FFF779FD3BE01DE0FFE75A21002015
:1010B000FFF772FD5A210120FFF76EFD5A21022031
:1010C000FFF76AFD5A210320FFF766FD5A2104202D
:1010D000FFF762FD5A210520FFF75EFD5A21062029
:1010E000FFF75AFD1CE05A210020FFF755FD5A2159
:1010F0000120FFF751FD5A210220FFF74DFD5A2133
:101100000320FFF749FDB4210420FFF745FD5A21D4
:101110000520FFF741FD5A210620FFF73DFD00BFE6
:1011200036E1022FFCD10A2C22D2DFE804F005229E
:101130003F5C809DBAD7F6F45A210720FFF72CFDBB
:101140005A210820FFF728FD5A210920FFF724FD26
:101150005A210A20FFF720FD5A210B20FFF71CFD22
:101160005A210C20FFF718FDB4210D20FFF714FDC4
:101170000DE100210720FFF70FFD5A210820FFF79E
:101180000BFD5A210920FFF707FDB4210A20FFF7C4
:1011900003FDB4210B20FFF7FFFC00210C20FFF71B
:1011A000FBFCB4210D20FFF7F7FCF0E05A210720EB
:1011B000FFF7F2FC5A210820FFF7EEFC002109207E
:1011C000FFF7EAFC5A210A20FFF7E6FC5A210B2020
:1011D000FFF7E2FC00210C20FFF7DEFC5A210D2076
:1011E000FFF7DAFCD3E05A210720FFF7D5FC5A219C
:1011F0000820FFF7D1FC5A210920FFF7CDFC5A2126
:101200000A20FFF7C9FCB4210B20FFF7C5FC002121
:101210000C20FFF7C1FC05E01400002015000020A1
:10122000902400085A210D20FFF7B6FCAFE0002102
:101230000720FFF7B1FC5A210820FFF7ADFC5A2127
:101240000920FFF7A9FCB4210A20FFF7A5FCB4216F
:101250000B20FFF7A1FC5A210C20FFF79DFC5A211F
:101260000D20FFF799FC92E05A210720FFF794FC2C
:10127000B4210820FFF790FC5A210920FFF78CFCCD
:101280005A210A20FFF788FCB4210B20FFF784FCC9
:101290005A210C20FFF780FC5A210D20FFF77CFC1F
:1012A00075E05A210720FFF777FCB4210820FFF7EB
:1012B00073FC5A210920FFF76FFC5A210A20FFF71F
:1012C0006BFC5A210B20FFF767FC5A210C20FFF71B
:1012D00063FC5A210D20FFF75FFC58E05A210720DC
:1012E000FFF75AFC5A210820FFF756FC5A21092023
:1012F000FFF752FCB4210A20FFF74EFCB4210B206B
:10130000FFF74AFC00210C20FFF746FCB4210D201A
:10131000FFF742FC3BE01DE0FFE75A210720FFF703
:101320003BFC5A210820FFF737FC5A210920FFF720
:1013300033FC5A210A20FFF72FFC5A210B20FFF71C
:101340002BFC5A210C20FFF727FC5A210D20FFF718
:1013500023FC1CE05A210720FFF71EFC5A2108201D
:10136000FFF71AFC5A210920FFF716FC5A210A2020
:10137000FFF712FCB4210B20FFF70EFC5A210C20C2
:10138000FFF70AFC5A210D20FFF706FC00BF00BF43
:10139000012F02D10348047001E003480470BDE846
:1013A000F087000014000020150000202DE9F04710
:1013B00007460C46012F05D100254FF00009FE48D5
:1013C000067804E007254FF0B409FC480678C6EB20
:1013D000C600FB49084490F806A0C4EBC4000844CA
:1013E00090F80680C2453BD0C6EBC6000844407862
:1013F00020B1691CC8B26E21FFF77AFCC6EBC600AB
:10140000EF490844807820B1A91CC8B24621FFF7F3
:101410006FFCC6EBC600EA490844007920B1291DDB
:10142000C8B26E21FFF764FCC6EBC600E44908446D
:10143000407920B1691DC8B24621FFF759FC3C2014
:10144000FEF79DFFB8F1000F01D05A2200E04A4696
:101450001146AA1DD0B2FFF74BFCB420FEF78FFF58
:10146000012F7CD10A2C22D2DFE804F005223F5C58
:101470007A97B4D1F0EE5A210020FFF739FC5A21B7
:101480000120FFF735FC5A210220FFF731FC5A21D9
:101490000320FFF72DFC5A210420FFF729FC5A21D5
:1014A0000520FFF725FC00210620FFF721FC07E1BE
:1014B000B4210020FFF71CFC5A210120FFF718FC83
:1014C0005A210220FFF714FC00210320FFF710FC33
:1014D000B4210420FFF70CFC00210520FFF708FCD5
:1014E00000210620FFF704FCEAE05A210020FFF764
:1014F000FFFB5A210120FFF7FBFB00210220FFF731
:10150000F7FB5A210320FFF7F3FB5A210420FFF7D2
:10151000EFFB00210520FFF7EBFB5A210620FFF728
:10152000E7FBCDE05A210020FFF7E2FB5A21012022
:10153000FFF7DEFB5A210220FFF7DAFB5A210320D6
:10154000FFF7D6FBB4210420FFF7D2FB00210520D2
:10155000FFF7CEFB5A210620FFF7CAFBB0E0B0E050
:10156000B4210020FFF7C4FB5A210120FFF7C0FB84
:101570005A210220FFF7BCFB00210320FFF7B8FB34
:10158000B4210420FFF7B4FB5A210520FFF7B0FB7C
:101590005A210620FFF7ACFB92E05A210020FFF70A
:1015A000A7FBB4210120FFF7A3FB5A210220FFF77C
:1015B0009FFB5A210320FFF79BFBB4210420FFF778
:1015C00097FB5A210520FFF793FB5A210620FFF7CE
:1015D0008FFB75E05A210020FFF78AFBB421012020
:1015E000FFF786FB5A210220FFF782FB5A210320D6
:1015F000FFF77EFB5A210420FFF77AFB5A210520D2
:10160000FFF776FB5A210620FFF772FB58E05A21BC
:101610000020FFF76DFB5A210120FFF769FB5A21DB
:101620000220FFF765FB00210320FFF761FBB421D7
:101630000420FFF75DFB00210520FFF759FB002187
:101640000620FFF755FB3BE01DE0FFE75A21002095
:10165000FFF74EFB5A210120FFF74AFB5A210220D7
:10166000FFF746FB5A210320FFF742FB5A210420D3
:10167000FFF73EFB5A210520FFF73AFB5A210620CF
:10168000FFF736FB1CE05A210020FFF731FB5A21FF
:101690000120FFF72DFB5A210220FFF729FB5A21D9
:1016A0000320FFF725FBB4210420FFF721FB5A217B
:1016B0000520FFF71DFB5A210620FFF719FB00BF8D
:1016C00036E1022FFCD10A2C22D2DFE804F00522F9
:1016D0003F5C809DBAD7F6F45A210720FFF708FB3C
:1016E0005A210820FFF704FB5A210920FFF700FBCD
:1016F0005A210A20FFF7FCFA5A210B20FFF7F8FACB
:101700005A210C20FFF7F4FAB4210D20FFF7F0FA6C
:101710000DE100210720FFF7EBFA5A210820FFF71F
:10172000E7FA5A210920FFF7E3FAB4210A20FFF76C
:10173000DFFAB4210B20FFF7DBFA00210C20FFF7C2
:10174000D7FAB4210D20FFF7D3FAF0E05A21072091
:10175000FFF7CEFA5A210820FFF7CAFA0021092024
:10176000FFF7C6FA5A210A20FFF7C2FA5A210B20C6
:10177000FFF7BEFA00210C20FFF7BAFA5A210D201C
:10178000FFF7B6FAD3E05A210720FFF7B1FA5A2142
:101790000820FFF7ADFA5A210920FFF7A9FA5A21CC
:1017A0000A20FFF7A5FAB4210B20FFF7A1FA0021C8
:1017B0000C20FFF79DFA05E016000020170000201E
:1017C000902400085A210D20FFF792FAAFE0002183
:1017D0000720FFF78DFA5A210820FFF789FA5A21CE
:1017E0000920FFF785FAB4210A20FFF781FAB42116
:1017F0000B20FFF77DFA5A210C20FFF779FA5A21C6
:101800000D20FFF775FA92E05A210720FFF770FAD2
:10181000B4210820FFF76CFA5A210920FFF768FA73
:101820005A210A20FFF764FAB4210B20FFF760FA6F
:101830005A210C20FFF75CFA5A210D20FFF758FAC5
:1018400075E05A210720FFF753FAB4210820FFF76B
:101850004FFA5A210920FFF74BFA5A210A20FFF7C5
:1018600047FA5A210B20FFF743FA5A210C20FFF7C1
:101870003FFA5A210D20FFF73BFA58E05A21072082
:10188000FFF736FA5A210820FFF732FA5A210920C9
:10189000FFF72EFAB4210A20FFF72AFAB4210B2011
:1018A000FFF726FA00210C20FFF722FAB4210D20C1
:1018B000FFF71EFA3BE01DE0FFE75A210720FFF784
:1018C00017FA5A210820FFF713FA5A210920FFF7C7
:1018D0000FFA5A210A20FFF70BFA5A210B20FFF7C3
:1018E00007FA5A210C20FFF703FA5A210D20FFF7BF
:1018F000FFF91CE05A210720FFF7FAF95A210820C6
:10190000FFF7F6F95A210920FFF7F2F95A210A20C8
:10191000FFF7EEF9B4210B20FFF7EAF95A210C206A
:10192000FFF7E6F95A210D20FFF7E2F900BF00BFEB
:10193000012F02D10348047001E003480470BDE8A0
:10194000F0870000160000201700002010B50446A4
:1019500034B1012C0DD0022C14D0032C08D18AE014
:101960005A210E20FFF718F95A210E20FFF7C0F96F
:10197000FAE000210E20FFF70FF900210E20FFF7FB
:10198000B7F9F1E0B4210020FFF706F9B4210120F6
:10199000FFF702F900210220FFF7FEF800210320E3
:1019A000FFF7FAF8B4210420FFF7F6F8002105202C
:1019B000FFF7F2F800210620FFF7EEF800210720DC
:1019C000FFF7EAF8B4210820FFF7E6F80021092024
:1019D000FFF7E2F8B4210A20FFF7DEF8B4210B206C
:1019E000FFF7DAF800210C20FFF7D6F8B4210D201C
:1019F000FFF7D2F800210E20FFF7CEF8B421002027
:101A0000FFF776F9B4210120FFF772F900210220D7
:101A1000FFF76EF900210320FFF76AF9B4210420D3
:101A2000FFF766F900210520FFF762F90021062083
:101A3000FFF75EF900210720FFF75AF9B4210820CB
:101A4000FFF756F900210920FFF752F9B4210A20C7
:101A5000FFF74EF9B4210B20FFF74AF900210C20C3
:101A6000FFF746F9B4210D20FFF742F900210E20BF
:101A7000FFF73EF978E0B4210020FFF78DF8B4219C
:101A80000120FFF789F800210220FFF785F80021E7
:101A90000320FFF781F8B4210420FFF77DF800212F
:101AA0000520FFF779F800210620FFF775F85A2185
:101AB0000720FFF771F85A210820FFF76DF8002181
:101AC0000920FFF769F8B4210A20FFF765F8B4216F
:101AD0000B20FFF761F85A210C20FFF75DF8B421C5
:101AE0000D20FFF759F800210E20FFF755F85A2175
:101AF0000020FFF7FDF85A210120FFF7F9F8002137
:101B00000220FFF7F5F800210320FFF7F1F8B421D8
:101B10000420FFF7EDF85A210520FFF7E9F800212E
:101B20000620FFF7E5F800210720FFF7E1F8B421D0
:101B30000820FFF7DDF800210920FFF7D9F8B421CC
:101B40000A20FFF7D5F8B4210B20FFF7D1F80021C8
:101B50000C20FFF7CDF8B4210D20FFF7C9F85A216A
:101B60000E20FFF7C5F800BF00BF10BD7047000092
:101B700029B1064AD2690243044BDA6104E0034A00
:101B8000D2698243014BDA617047000000100240C5
:101B900029B1064A92690243044B9A6104E0034A60
:101BA00092698243014B9A61704700000010024025
:101BB00030B500210022002400232D4D6D6805F072
:101BC0000C0121B1042905D0082923D105E0294DB4
:101BD000056022E0274D05601FE0254D6D6805F486
:101BE0007012234D6D6805F48034022505EB924296
:101BF0001CB9214D554305600BE01D4D6D6805F482
:101C000000351DB11C4D5543056002E0194D55438B
:101C1000056002E0174D056000BF00BF144D6D6800
:101C200005F0F0010909154D6B5C0568DD40456064
:101C30000F4D6D6805F4E061090A104D6B5C456855
:101C4000DD4085600A4D6D6805F46051C90A0B4D91
:101C50006B5C4568DD40C560054D6D6805F440412D
:101C6000890B074D6B5CC568B5FBF3F5056130BDAD
:101C70000010024000127A0000093D000000002020
:101C800010000020704710B500F002F810BD0000F1
:101C90000CB50020019000903348006840F480307B
:101CA0003149086000BF3048006800F400300090FF
:101CB0000198401C0190009818B90198B0F5A06FE8
:101CC000F1D12948006800F4003010B101200090E3
:101CD00001E0002000900098012843D123480068CB
:101CE00040F01000214908600846006820F0030019
:101CF00008600846006840F0020008601A48406822
:101D0000194948600846406848600846406840F401
:101D1000806048600846406820F47C1048600846AF
:101D2000406840F4E81048600846006840F0807061
:101D3000086000BF0C48006800F000700028F9D06F
:101D40000948406820F00300074948600846406899
:101D500040F00200486000BF0348406800F00C00FB
:101D60000828F9D10CBD00000010024000200240FC
:101D70007047000010B51348006840F00100114999
:101D8000086008464068104908400E494860084607
:101D900000680E4908400B4908600846006820F4B6
:101DA000802008600846406820F4FE0048604FF438
:101DB0001F008860FFF767FF4FF00060044908606C
:101DC00010BD0000001002400000FFF8FFFFF6FE0B
:101DD00008ED00E021B1828942F40052828104E0E2
:101DE00082894DF6FF731A408281704702460020B7
:101DF000B1F5007F00D100BF13880B400BB101206B
:101E000000E00020704700002DE9F04786B005464D
:101E10000E460024A24600BFA1460027B08900B1AB
:101E200000BF2F462C8A4CF6FF700440F088044314
:101E30002C82AC894EF6F3100440B08831890843F7
:101E4000718908430443AC81AC8A4FF6FF400440DB
:101E5000B0890443AC8201A8FFF7AAFE1F4887425D
:101E600002D1DDF810A001E0DDF80CA0A88900F493
:101E7000004040B10AEBCA0000EB0A10316849008B
:101E8000B0FBF1F807E00AEBCA0000EB0A1031687A
:101E90008900B0FBF1F86420B8FBF0F004012009E0
:101EA000642101FB1089A88900F4004040B1322070
:101EB00000EBC900B0FBF1F000F00700044308E0BC
:101EC000322000EB09106421B0FBF1F000F00F00AC
:101ED00004432C8106B0BDE8F087000000380140C3
:101EE00001468888C0F30800704700BFFEE702E0A3
:101EF00008C8121F08C1002AFAD170477047002095
:101F000001E001C1121F002AFBD1704708B5012171
:101F10000420FFF73DFE4FF48070ADF80000042070
:101F20008DF8030069460248FEF74CFA08BD000030
:101F30000008014008B501210420FFF729FE4FF4F5
:101F40008070ADF8000003208DF8020010208DF89D
:101F5000030069460448FEF735FA4FF480710248E1
:101F6000FEF7C4FA08BD00000008014010B50021CA
:101F70008E2000F015F926218C2000F011F9802127
:101F80008E2000F00DF910BD10B500F059F82A4868
:101F9000007800F00F0028490978091101EB810150
:101FA00000EB4100254988712348407800F00F007C
:101FB00021494978C1F3021101EB810100EB410095
:101FC0001E4948711C48807800F00F001A49897832
:101FD000091101EB810100EB410018490871164815
:101FE000C07800F00F001449C978091101EB810194
:101FF00000EB41001149C8700F48007900F00F0054
:102000000D490979091101EB810100EB41000B49F0
:10201000887009484079C8710748807900F00F003E
:1020200005498979091101EB810100EB410000F5B7
:10203000FA600249088010BD20000020180000202E
:1020400010B5812000F054F810490870832000F08A
:102050004FF80E494870852000F04AF80B49887007
:10206000872000F045F80949C870892000F040F841
:10207000064908718B2000F03BF8044948718D2017
:1020800000F036F80149887110BD000020000020E2
:102090007047704708B501210420FFF779FD4FF420
:1020A0000060ADF8000003208DF8020010208DF8CC
:1020B000030069460D48FEF785F94FF400610B48AF
:1020C000FEF714FA4FF48050ADF8000003208DF8AD
:1020D000020010208DF8030069460448FEF772F9EB
:1020E0004FF480510148FEF701FA08BD0008014095
:1020F0002DE9F04105462F46002600244FF40061EB
:102100002648FEF7F3F94FF480512448FEF7EEF924
:102110000320FEF740F94FF400612048FEF7E8F98C
:102120000320FEF738F9384600F06CF8FFF7EEFEB2
:102130000220FEF730F900BF1DE00220FEF72BF968
:1021400064104FF480511548FEF7D2F90420FEF7D1
:1021500022F94FF480511148FEF7C8F90E20FEF71E
:102160001AF94FF480710D48FEF7B7F908B144F041
:102170008004701CC6B2082EDFDB0220FEF70BF9CC
:102180004FF400610548FEF7B1F94FF48071034840
:10219000FEF7ACF92046BDE8F081000000080140E0
:1021A0002DE9F04104460D4626462F464FF40061C6
:1021B0001348FEF79BF94FF480511148FEF796F94A
:1021C0000120FEF7E8F84FF400610D48FEF790F9A2
:1021D0000220FEF7E0F8304600F014F8384600F030
:1021E00011F84FF400610648FEF780F94FF4805172
:1021F0000348FEF77BF90220FEF7CDF8BDE8F08139
:102200000008014070B50446FFF794FE00254FF426
:1022100080511148FEF76AF900BF1AE04FF480516F
:102220000D48FEF763F904F0010028B14FF4807106
:102230000948FEF75DF904E04FF480710648FEF7A7
:1022400055F94FF480510448FEF752F96410681CA8
:10225000C5B2082DE2DB70BD00080140FEF79EFA12
:10226000FEF77CFCFEF726FDFFF714FFFFF77EFE6E
:10227000FFF70EFF03E1FFF787FEFFF70AFF2021BC
:102280007F48FFF7B3FD012804D17D48FFF728FE02
:102290007C4908707B480078082808D2DFE800F005
:1022A00004080C2F437396B90220FFF74FFBD3E0CD
:1022B0000320FFF74BFBCFE0734840790A2190FBE6
:1022C000F1F201FB1200C4B26F48407990FBF1F0CB
:1022D000C5B26D48007990FBF1F201FB1200C6B265
:1022E0006948007990FBF1F0C7B223462A4631468F
:1022F0003846FEF793FA0020FFF728FBACE00221F6
:102300000120FEF783FD03210220FEF77FFD01205F
:10231000FFF71CFB00210120FFF748F801210220F4
:10232000FFF744F898E0584800880A2190FBF1F242
:1023300001FB1200C4B254480088642190FBF1F202
:1023400001FB12000A2190FBF1F0C5B24E48008853
:102350004FF47A7190FBF1F201FB1200642190FBC3
:10236000F1F0C6B2484800884FF47A7190FBF1F062
:10237000C7B223462A4631463846FEF74FFA0120B7
:10238000FFF7E4FA68E04048C0780A2190FBF1F2D8
:1023900001FB1200C4B23C48C07890FBF1F0C5B21A
:1023A0003948807890FBF1F201FB1200C6B2364842
:1023B000807890FBF1F0C7B223462A463146384672
:1023C000FEF72CFA0020FFF7C1FA45E02E484079CD
:1023D0000A2190FBF1F201FB1200C4B22A484079B5
:1023E00090FBF1F0C5B22948007890FBF1F201FBB7
:1023F0001200C6B22548007890FBF1F0C7B2234620
:102400002A4631463846FEF709FA0020FFF79EFAC1
:1024100022E01D4880790A2190FBF1F201FB1200B5
:10242000C4B21948807990FBF1F0C5B216484079E2
:1024300090FBF1F201FB1200C6B21348407990FB09
:10244000F1F0C7B223462A4631463846FEF7E6F990
:102450000020FFF77BFA00BF00BF0B4800790F2870
:1024600005DB094800790F380849087007E006487D
:102470000079C0F10F00C0F1180004490870FAE6B5
:10248000003801402700002018000020280000200C
:102490000101010101010000010100000000010132
:1024A0000001010001010101010000010001010022
:1024B0000001010100010100010101000101010110
:1024C0000101010100000000010101010101010100
:1024D0000101010001010000F824000800000020B3
:1024E0002C000000EE1E0008242500082C0000200F
:1024F00004040000FE1E00080000000001020304A6
:10250000010203040607080902040608000100008E
:1025100000000000000000000000000000000000BB
:0425200000000000B7
:0400000508000101ED
:00000001FF
